:10000000300200207D07000079070000790700001A
:1000100000000000000000000000000000000000E0
:100020000000000000000000000000007907000050
:1000300000000000000000007907000079070000C0
:1000400079070000790700007907000079070000B0
:1000500079070000790700007907000079070000A0
:100060007907000079070000790700007907000090
:100070007907000079070000790700007907000080
:100080007907000079070000790700007907000070
:100090007907000079070000790700007907000060
:1000A0007907000010B5064C2378002B07D1054BCB
:1000B000002B02D0044800E000BF0123237010BDD4
:1000C0000000002000000000E40B000008B5084B11
:1000D000002B03D00748084900E000BF0748036829
:1000E000002B03D0064B002B00D0984708BDC0461C
:1000F00000000000E40B000004000020E40B0000FE
:100100000000000007B500236946064A0B705268DC
:100110006846D206120FCB700B714B70024B8A707F
:10012000984707BD00400041ED04000008B5014BB1
:10013000984708BD05010000F0B5C3B001928022C8
:10014000061C0F1C0120D20296423BD8340A24021E
:10015000002B13D01C4D02A94022201CA847201CB4
:1001600012A940224030A847201C22A940228030FA
:10017000A847201CC03032A94022A847002301997B
:10018000DAB28A4206D202A8C118F85CF2B28854E8
:100190000133F4E70D4B201C98470D4D02A9402276
:1001A000201CA847201C12A940224030A847201C30
:1001B00022A940228030A847201CC03032A940220A
:1001C000A847002043B0F0BDB106000021070000A1
:1001D00011060000F0B58023C3B0061C0F1C01926D
:1001E0000120DB029E4222D8350A2D02114C02A9C1
:1001F0004022281CA047281C12A940224030A047BA
:10020000281C22A940228030A047281CC03032A9D7
:100210004022A04700230199DAB28A4206D202A8FE
:10022000C118F2B28A5CFA540133F4E7002043B0FB
:10023000F0BDC046B1060000F8B5041C0F1C161E28
:10024000402E22D9051CEBB2002B02D1281C144BE6
:100250009847391B4919281C124B402298474035B2
:1002600033195B1B9BB2402BEDD8331C413B9BB237
:100270009B0999014034321C403A6018591C9B017B
:100280008901D21A791892B207E0C3B2002B01D1CA
:10029000034B9847201C391C321C024B9847F8BD71
:1002A0002107000011060000144B012219781143A8
:1002B0001970134B19780A431A70124B22221A70C4
:1002C000114B20211A6A0A431A62104A104B5A80B5
:1002D000104A114B1360118A0E4BC90BFBD1C02180
:1002E000890259600D495981118A0A4BC90BFBD10A
:1002F0001A6802210A431A607047C04658440041F8
:10030000594400413C4400410004004010400000BA
:10031000000C0040001400420400314004C5FFFFFF
:10032000837BDA07FCD501837047837B5A07FCD5B2
:10033000008BC0B270470000024B987B4007C00F93
:100340007047C0460014004210B50378002B06D059
:10035000034A917BCC07FBD513830130F5E710BD31
:100360000014004230B5021C031C00209C1A8C4271
:100370000ADA1D78040A6540044C6D002C5B00020B
:10038000604080B20133F1E730BDC0467009000023
:1003900010B5041C002C09D0054B9847002803D049
:1003A000044B0548984702E0013CF3E7201C10BDD0
:1003B000390300002B0300000014004208B5011CA3
:1003C000014B0248984708BD210300000014004279
:1003D000F0B53C4FA5B0051C002301203B60019007
:1003E000FA26B600384839498847C4B2002C07D1EC
:1003F0004320374B013E9847002EF3D101205FE0A8
:100400002023221C9A43422A59D0012C4AD16B4600
:100410001C720024013402A800260655FA20800030
:100420002A49884702AA1055852CF3D16846827A5A
:10043000437AD243D2B2934229D10199994226D12B
:10044000244B0B30802198476B468B331B7823AAB3
:1004500012781B02D3189BB2984218D13B68321C09
:1004600002A88118C97801321A39481E81415B18E7
:10047000802AF5D13B60019B69460133DBB2281C21
:1004800001930B31144B98478035062000E015206E
:100490000F4B9847FA2080000C498847C4B2002CC3
:1004A000F8D0B2E7201C0A4EB047042C03D1062036
:1004B000B047002004E0182C92D1032000E0022075
:1004C00025B0F0BD24000020A086010091030000AB
:1004D000BD0300006503000039020000024B187DD7
:1004E000012318407047C0460040004138B51C4BFE
:1004F0000421DA691B4C0A43DA61228B2023FF3383
:1005000013432383184B051C9847031C0520002B1D
:1005100025D0EA786B782978DB0192041A43C0234E
:1005200009029B000B401343AA781E2152000A4087
:1005300029791343C022090492020A4013436360DD
:10054000A2680A4B5203520F082191401980A268F9
:100550005A806A781A71208BC005C00F000138BD1F
:100560000004004000400041DD0400001C000020A9
:10057000F7B5234B041C5A881B880E1C5343994221
:1005800006D9204A1823891880229201914234D832
:100590001D4D1E4F6B68019301998023DB020B43B5
:1005A0006B602A8B2023FF3313432B83B84705232B
:1005B000002822D0062C06D89C420BD2022C0DD04B
:1005C000042C19D10AE0402C16D3412C06D9452C15
:1005D00007D911E02A8B1023D1050ED4B608760076
:1005E000EE61A5231B021C432C80B8470028FCD0D9
:1005F000019A00236A6000E01723181CFEBDC04664
:100600001C00002000C07FFF00400041DD0400000E
:10061000F8B5151C214A0E1C13885188041C594337
:100620001822884237D8591E014234D117229D42E0
:1006300031D81B4FB847052200282CD0194F1A4B30
:100640003B80174A90470028FBD03A8B2023FF338A
:10065000134360083B83400000239AB2AA420ED2A3
:100660009AB26F1EB15CBA4201DB0A1C03E0B218F9
:10067000527812020A4319180A800233EDE7074A3A
:1006800013790022934206D13F2D04D80420211C67
:10069000064B9847021C101CF8BDC0461C000020E9
:1006A000DD0400000040004144A5FFFF710500008B
:1006B000F8B5184B0E1C19885B88141C4B43051C9D
:1006C0001822984224D84F1E074021D117228C426D
:1006D0001ED8114B98470522002819D00F4B202215
:1006E000198BFF320A436D081A836D003B1C9AB2C6
:1006F000A2420CD25A191188601E89B29AB2B15422
:10070000824202DAB218090A51700233EFE700227E
:10071000101CF8BD1C000020DD040000004000415A
:1007200038B5114B041C1A88598818235143884244
:1007300017D89200013A104213D10C4DA847052357
:1007400000280ED00A4B2022198BFF320A431A834D
:10075000A408084A6400DC611A80A8470028FCD07D
:100760000023181C38BDC0461C000020DD0400001A
:100770000040004102A5FFFFFEE7000014481549B4
:1007800010B5884201D0002301E0134B07E0134C61
:10079000CA18A242F9D2C45804331460F7E7104AC9
:1007A000191D043B934203D200221A600B1CF6E78A
:1007B0000C4A0D4BFF218A439A600C4B80215A68EA
:1007C0000A435A600A4B98470A4B9847FEE7C046CF
:1007D000E40B0000000000200400002000000020C6
:1007E0002C0000200000000000ED00E0004000416F
:1007F0002509000015080000036883F30888FF231B
:10080000021C9A43024B9A60436818477047C046DF
:1008100000ED00E037B5344B344A196A0A401A62D9
:10082000334B9847334B9847334A344980231B0254
:100830000620536008709361C046C046C046C0465B
:10084000C046C046C046C046C046106A6B46C00B94
:1008500001210840073318701878002809D0284C67
:10086000284B2948211C042298472378AA2B1ED103
:1008700010E0C046C046C046C046C046C046C0465E
:10088000C046C046126AD20B114019701B78002B6B
:10089000E5D10CE06378552B09D1A378AA2B06D1BA
:1008A000E378552B03D1C0200001184B9847C02096
:1008B0000001174B9847174C002811D11049AA2264
:1008C00055230A7010484B70134D8A70CB70042268
:1008D0000123A8471148A047C02000010B4B9847AF
:1008E0000F48A047FEE7C04600080040FFFCFFFF9E
:1008F000A90200002D010000004400414F440041C6
:1009000028000020D5010000FC0B0000F9070000C2
:10091000D10300004903000039010000700B000002
:10092000A00B000070B50E4B0E4D0024ED1AAD105B
:100930001E1CAC4204D0A300F35898470134F8E7DA
:1009400000F040F9084B094D0024ED1AAD101E1CB3
:10095000AC4204D0A300F35898470134F8E770BDC7
:10096000D00B0000D00B0000D00B0000D40B000017
:1009700000002110422063308440A550C660E7701B
:10098000088129914AA16BB18CC1ADD1CEE1EFF1C3
:100990003112100273325222B5529442F772D6626B
:1009A000399318837BB35AA3BDD39CC3FFF3DEE313
:1009B0006224433420040114E664C774A4448554BB
:1009C0006AA54BB528850995EEE5CFF5ACC58DD563
:1009D0005336722611163006D776F6669556B4460B
:1009E0005BB77AA719973887DFF7FEE79DD7BCC7B3
:1009F000C448E5588668A77840086118022823385B
:100A0000CCC9EDD98EE9AFF9488969990AA92BB902
:100A1000F55AD44AB77A966A711A500A333A122AAA
:100A2000FDDBDCCBBFFB9EEB799B588B3BBB1AAB52
:100A3000A66C877CE44CC55C222C033C600C411CFA
:100A4000AEED8FFDECCDCDDD2AAD0BBD688D499DA2
:100A5000977EB66ED55EF44E133E322E511E700E4A
:100A60009FFFBEEFDDDFFCCF1BBF3AAF599F788FF2
:100A70008891A981CAB1EBA10CD12DC14EF16FE1D2
:100A80008010A100C230E32004502540467067600A
:100A9000B9839893FBA3DAB33DC31CD37FE35EF322
:100AA000B1029012F322D23235421452776256725A
:100AB000EAB5CBA5A89589856EF54FE52CD50DC572
:100AC000E234C324A01481046674476424540544AA
:100AD000DBA7FAB79987B8975FE77EF71DC73CD7C2
:100AE000D326F2369106B0165766767615463456FA
:100AF0004CD96DC90EF92FE9C899E9898AB9ABA912
:100B00004458654806782768C018E1088238A32849
:100B10007DCB5CDB3FEB1EFBF98BD89BBBAB9ABB61
:100B2000754A545A376A167AF10AD01AB32A923A99
:100B30002EFD0FED6CDD4DCDAABD8BADE89DC98DB1
:100B4000267C076C645C454CA23C832CE01CC10CE9
:100B50001FEF3EFF5DCF7CDF9BAFBABFD98FF89F01
:100B6000176E367E554E745E932EB23ED10EF01E39
:100B70000D0A2D3E4669726D77617265205570646D
:100B8000617465205375636365737366756C205E6D
:100B90005F5E205E5F5E205E5F5E20A3A10D0A00A7
:100BA0000D0A2D3E4669726D77617265205570643D
:100BB000617465204661696C656420A3A1A3A1A34B
:100BC000A10D0A00F8B5C046F8BC08BC9E467047A7
:100BD000CD000000F8B5C046F8BC08BC9E46704782
:040BE000A50000006C
:040000030000077D75
:00000001FF
